:100000000C9435000C945D000C945D000C945D0024
:100010000C945D000C945D000C945D000C945D00EC
:100020000C945D000C945D000C945D000C945D00DC
:100030000C945D000C945D000C945D000C945D00CC
:100040000C94E7010C945D000C94B5010C948F01A5
:100050000C945D000C945D000C945D000C945D00AC
:100060000C945D000C945D00480311241FBECFEF7B
:10007000D8E0DEBFCDBF11E0A0E0B1E0E8E4F7E0FA
:1000800002C005900D92A631B107D9F721E0A6E193
:10009000B1E001C01D92AE3BB207E1F710E0C5E34D
:1000A000D0E004C02197FE010E949703C433D1071A
:1000B000C9F70E9431020C94A2030C940000CF9265
:1000C000DF92EF92FF920F931F93CF93DF936C0118
:1000D0007A018B01C0E0D0E0CE15DF0589F0D801B0
:1000E0006D918D01D601ED91FC910190F081E02D93
:1000F000C6010995892B11F47E0102C02196ECCF2F
:10010000C701DF91CF911F910F91FF90EF90DF908A
:10011000CF900895FC01918D828D981761F0828DAA
:10012000DF01A80FB11D5D968C91928D9F5F9F732B
:10013000928F90E008958FEF9FEF0895FC01918DCD
:10014000828D981731F0828DE80FF11D858D90E03A
:1001500008958FEF9FEF0895FC01918D228D892FD7
:1001600090E0805C9F4F821B91098F7399270895BF
:1001700081E291E00E94AC0021E0892B09F420E0AB
:10018000822F0895FC01848DDF01A80FB11DA35AB1
:10019000BF4F2C91848D90E001968F739927848FA7
:1001A000A689B7892C93A089B1898C9180648C939E
:1001B000938D848D981306C00288F389E02D808189
:1001C0008F7D80830895EF92FF920F931F93CF93BB
:1001D000DF93EC0181E0888F9B8D8C8D981305C097
:1001E000E889F989808185FD24C0F62E0B8D10E009
:1001F0000F5F1F4F0F731127E02E8C8DE8120CC07C
:100200000FB607FCFACFE889F989808185FFF5CF21
:10021000CE010E94C200F1CF8B8DFE01E80FF11DCF
:10022000E35AFF4FF0820B8FEA89FB89808180625D
:1002300007C0EE89FF896083E889F989808180643D
:10024000808381E090E0DF91CF911F910F91FF902B
:10025000EF900895CF93DF93EC01888D8823C9F048
:10026000EA89FB89808185FD05C0A889B9898C91BF
:1002700086FD0FC00FB607FCF5CF808185FFF2CF5A
:10028000A889B9898C9185FFEDCFCE010E94C2006B
:10029000E7CFDF91CF91089580E090E0892B29F09E
:1002A0000E94B80081110C94000008953FB7F894A3
:1002B00080911B0190911C01A0911D01B0911E0124
:1002C00026B5A89B05C02F3F19F00196A11DB11DB1
:1002D0003FBFBA2FA92F982F8827820F911DA11DEC
:1002E000B11DBC01CD0142E0660F771F881F991F29
:1002F0004A95D1F70895009769F0FC01019000201C
:10030000E9F73197AF01481B590BBC0181E291E03D
:100310000C945F0080E090E008950E949D031F927E
:100320000F920FB60F9211242F933F934F935F9329
:100330006F937F938F939F93AF93BF93EF93FF93AD
:1003400081E291E00E94C200FF91EF91BF91AF91D5
:100350009F918F917F916F915F914F913F912F91DD
:100360000F900FBE0F901F9018951F920F920FB60F
:100370000F9211242F938F939F93EF93FF93E0910C
:100380003101F09132018081E0913701F091380123
:1003900082FD12C0908180913A018F5F8F7320910E
:1003A0003B01821751F0E0913A01F0E0EF5DFE4F22
:1003B000958F80933A0101C08081FF91EF919F91C9
:1003C0008F912F910F900FBE0F901F9018951F9235
:1003D0000F920FB60F9211242F933F938F939F93F9
:1003E000AF93BF938091170190911801A0911901CB
:1003F000B0911A013091160123E0230F2D3720F41C
:100400000196A11DB11D05C026E8230F0296A11D6E
:10041000B11D209316018093170190931801A093AA
:100420001901B0931A0180911B0190911C01A091B8
:100430001D01B0911E010196A11DB11D80931B01EC
:1004400090931C01A0931D01B0931E01BF91AF9129
:100450009F918F913F912F910F900FBE0F901F9002
:100460001895CF93DF93CDB7DEB7A1970FB6F89469
:10047000DEBF0FBECDBF789484B5826084BD84B5E5
:10048000816084BD85B5826085BD85B5816085BD8F
:1004900080916E00816080936E0010928100809147
:1004A00081008260809381008091810081608093CF
:1004B0008100809180008160809380008091B100F4
:1004C00084608093B1008091B00081608093B0001F
:1004D00080917A00846080937A0080917A008260B3
:1004E00080937A0080917A00816080937A00809175
:1004F0007A00806880937A001092C100E091310107
:10050000F091320182E08083E0912D01F0912E0183
:100510001082E0912F01F09130018FEC80831092D6
:100520003901E0913501F091360186E08083E09158
:100530003301F0913401808180618083E091330147
:10054000F0913401808188608083E0913301F091E3
:100550003401808180688083E0913301F09134011F
:1005600080818F7D808380E191E00E947B0182E128
:1005700091E00E947B0115E49AE0892E912CA12C38
:10058000B12C10937C0080917A00806480937A0073
:1005900080917A0086FDFCCF8091780020917900CF
:1005A00090E0922B9093200180931F012C01092E43
:1005B000000C6608770897FF26C0E0912101F091B2
:1005C00022010190F081E02D6DE281E291E0099538
:1005D00022273327A901241935094609570919A2E9
:1005E000CE0181967C01CA01B901A50194010E9446
:1005F0007503605DF70162937F01211531054105A7
:10060000510589F715C0A301920119A2CE01819667
:100610007C01CA01B901A50194010E947503605DC6
:10062000F70162937F01211531054105510589F7D5
:10063000C7010E947B0182E191E00E947B010E9440
:1006400056016B017C0188EC482E512C612C712CD9
:100650000E945601DC01CB018C199D09AE09BF092E
:10066000883E9340A105B10558F0F1E04F1A5108BA
:100670006108710828EEC20E23E0D21EE11CF11CB5
:10068000411451046104710419F70E944C0179CF9F
:10069000E1E2F1E01382128288EE93E0A0E0B0E0A4
:1006A00084839583A683B78384E091E091838083DC
:1006B00085EC90E09587848784EC90E09787868727
:1006C00080EC90E0918B808B81EC90E0938B828B1F
:1006D00082EC90E0958B848B86EC90E0978B868BF8
:1006E000118E128E138E148E0895A1E21A2EAA1B5B
:1006F000BB1BFD010DC0AA1FBB1FEE1FFF1FA217D2
:10070000B307E407F50720F0A21BB30BE40BF50BCE
:10071000661F771F881F991F1A9469F76095709557
:10072000809590959B01AC01BD01CF010895EE0F1E
:10073000FF1F0590F491E02D099481E090E0F8947A
:080740000C94A203F894FFCF12
:1007480000000000E3005F00AC008A009E002A0160
:0607580020000D0A000064
:00000001FF
