:100000000C9462000C948A000C948A000C948A0070
:100010000C948A000C948A000C948A000C948A0038
:100020000C948A000C948A000C948A000C948A0028
:100030000C948A000C948A000C948A000C948A0018
:100040000C9441030C948A000C948A000C948A004E
:100050000C948A000C948A000C948A000C948A00F8
:100060000C948A000C948A000000000024002700F1
:100070002A0000000000250028002B0000000000DE
:1000800023002600290004040404040404040202DA
:100090000202020203030303030301020408102007
:1000A0004080010204081020010204081020000012
:1000B0000008000201000003040700000000000027
:1000C0000000500511241FBECFEFD8E0DEBFCDBF2A
:1000D00011E0A0E0B1E0ECE3FBE002C005900D927E
:1000E000A836B107D9F721E0A8E6B1E001C01D921A
:1000F000AB38B207E1F710E0C2E6D0E004C02197C8
:10010000FE010E949105C136D107C9F70E948B03F9
:100110000C949C050C940000CF92DF92EF92FF921A
:100120000F931F93CF93DF936C017A018B01C0E093
:10013000D0E0CE15DF0589F0D8016D918D01D60193
:10014000ED91FC910190F081E02DC6010995892B7C
:1001500011F47E0102C02196ECCFC701DF91CF914F
:100160001F910F91FF90EF90DF90CF900895833013
:1001700081F028F4813099F08230A1F00895873021
:10018000A9F08830B9F08430D1F4809180008F7D5F
:1001900003C0809180008F7780938000089584B59C
:1001A0008F7702C084B58F7D84BD08958091B000A3
:1001B0008F7703C08091B0008F7D8093B000089549
:1001C000CF93DF93282F30E0F901E255FF4F849160
:1001D000F901E656FF4FD491F901EA57FF4FC49158
:1001E000CC2391F081110E94B700EC2FF0E0EE0FCC
:1001F000FF1FE458FF4FA591B491EC91ED2381E0EE
:1002000090E021F480E002C080E090E0DF91CF91A7
:1002100008951F93CF93DF93282F30E0F901E25523
:10022000FF4F8491F901E656FF4FD491F901EA5747
:10023000FF4FC491CC23C9F0162F81110E94B70043
:10024000EC2FF0E0EE0FFF1FEE58FF4FA591B49199
:100250008FB7F894111105C09C91ED2FE095E9231B
:1002600002C0EC91ED2BEC938FBFDF91CF911F91EA
:100270000895CF93DF9390E0FC01E656FF4F249161
:10028000FC01EA57FF4F8491882361F190E0880FC9
:10029000991FFC01E859FF4FC591D491FC01EE581C
:1002A000FF4FA591B491611109C09FB7F89488815F
:1002B000209582238883EC912E230BC0623061F459
:1002C0009FB7F8943881822F809583238883EC919F
:1002D0002E2B2C939FBF06C08FB7F894E8812E2B4E
:1002E00028838FBFDF91CF9108953FB7F894809115
:1002F0006D0190916E01A0916F01B091700126B5D2
:10030000A89B05C02F3F19F00196A11DB11D3FBF4D
:10031000BA2FA92F982F8827820F911DA11DB11DDB
:10032000BC01CD0142E0660F771F881F991F4A95D7
:10033000D1F708958F929F92AF92BF92CF92DF92A2
:10034000EF92FF926B017C010E9475014B015C01F1
:10035000C114D104E104F104F1F00E947501DC0143
:10036000CB0188199909AA09BB09883E9340A105C8
:10037000B10570F321E0C21AD108E108F10888EE56
:10038000880E83E0981EA11CB11CC114D104E104A5
:10039000F10419F7DDCFFF90EF90DF90CF90BF9081
:1003A000AF909F908F900895CF93DF93EC0160E022
:1003B0008E810E94090161E08E810E94090160E046
:1003C0008E810E9409018BE891E00197F1F7DF919E
:1003D000CF910895CF92DF92EF92FF920F931F93E8
:1003E000CF93DF937C016C0187E0C80ED11CC0E085
:1003F000D0E0062F10E0B8010C2E02C0759567956D
:100400000A94E2F76170F60181916F010E9409017F
:100410002196C430D10579F7C701DF91CF911F91A3
:100420000F91FF90EF90DF90CF900C94D401CF927A
:10043000DF92EF92FF920F931F93CF93DF93EC0124
:10044000F62E642F8C810E9409018D818F3F19F057
:1004500060E00E9409018F850F2D10E084FF25C008
:100460006E0187E0C80ED11CE12CF12CB8010E2CD6
:1004700002C0759567950A94E2F76170F601819163
:100480006F010E940901FFEFEF1AFF0A88E0E816EA
:10049000F10461F7CE01DF91CF911F910F91FF9091
:1004A000EF90DF90CF900C94D401B80184E0759563
:1004B00067958A95E1F7CE010E94EA016F2DCE0182
:1004C000DF91CF911F910F91FF90EF90DF90CF9030
:1004D0000C94EA0141E00E94170281E090E0089547
:1004E00040E00C941702EF92FF920F931F93CF936B
:1004F000DF93EC01623018F08F8588608F876B8BFB
:100500001C8A80E48D8B80E18E8B80E58F8B61E08F
:100510008C810E9439018D818F3F19F061E00E942A
:10052000390161E08E810E9439017E0187E0E80E89
:10053000F11C00E010E08F8584FD03C084E090E0B2
:1005400002C088E090E0081719074CF461E0F70159
:1005500081917F010E9439010F5F1F4FECCF8BE328
:100560009DE00197F1F760E08C810E94090160E055
:100570008E810E9409018D818F3F19F060E00E94F9
:1005800009016F8564FD1DC063E0CE010E94EA0190
:100590000BE416E4C8010197F1F763E0CE010E9475
:1005A000EA01C8010197F1F763E0CE010E94EA0178
:1005B00083E592E00197F1F762E0CE010E94EA0143
:1005C00016C06062CE010E9470028BE496E401972F
:1005D000F1F76F856062CE010E94700283E592E0C0
:1005E0000197F1F76F856062CE010E9470026F85FE
:1005F0006062CE010E94700284E0888B6CE0CE01C4
:100600000E94700261E0CE010E9470028BE39FE1C4
:100610000197F1F782E0898B66E0CE01DF91CF91FF
:100620001F910F91FF90EF900C947002643008F0CE
:1006300063E090918601691710F06FEF690FE62F64
:10064000F0E0ED58FE4F9489682F690F606883E7EA
:1006500091E00C947002009769F0FC010190002079
:10066000E9F73197AF01481B590BBC0183E791E0D3
:100670000C948C0080E090E008950C942B030E9471
:1006800097051F920F920FB60F9211242F933F934D
:100690008F939F93AF93BF938091690190916A016B
:1006A000A0916B01B0916C013091680123E0230FA0
:1006B0002D3720F40196A11DB11D05C026E8230F9A
:1006C0000296A11DB11D209368018093690190934A
:1006D0006A01A0936B01B0936C0180916D019091C0
:1006E0006E01A0916F01B09170010196A11DB11D25
:1006F00080936D0190936E01A0936F01B093700190
:10070000BF91AF919F918F913F912F910F900FBE0D
:100710000F901F901895CF93DF93CDB7DEB7A197B9
:100720000FB6F894DEBF0FBECDBF789484B582605B
:1007300084BD84B5816084BD85B5826085BD85B585
:10074000816085BD80916E00816080936E00109203
:10075000810080918100826080938100809181007E
:10076000816080938100809180008160809380000F
:100770008091B10084608093B1008091B00081606D
:100780008093B00080917A00846080937A00809199
:100790007A00826080937A0080917A0081608093F1
:1007A0007A0080917A00806880937A001092C1006C
:1007B00062E083E791E00E94730260E080E00E94C3
:1007C000160388E091E00E943D0361E080E00E9412
:1007D000160389E191E00E943D0360ED77E080E03F
:1007E00090E00E949A0161E080E00E9416038AE294
:1007F00091E00E943D0360E080E00E9416038BE3DD
:1008000091E00E943D0361E08AE00E94390162E0CC
:100810008BE00E94390162E08CE00E94390162E0C5
:100820008DE00E94390161E088E00E94390161E0B9
:1008300089E00E9439018AE0482E512C612C712CEC
:1008400008EB10E090E0A92E90E0B92E8DE00E9418
:10085000E000019709F0F3C08CE00E94E000892BD2
:1008600091F48091710190917201893C91055CF441
:10087000C296909372018093710168EC70E080E001
:1008800090E00E949A018BE00E94E000892B09F51C
:10089000E0907101F090720182E3E816F104CCF06F
:1008A00092E3E91AF108F0927201E092710168ECAA
:1008B00070E080E090E00E949A01E2E3EE16F1041D
:1008C00041F461E080E00E9416038AE291E00E9418
:1008D0003D03E0907101F090720161E08AE00E94B6
:1008E0003901E114F10411F460E005C0FFEFEF16E7
:1008F000F10429F461E08AE00E94090143C0F80193
:1009000084918330F9F048F48130B9F08230A1F558
:1009100084B5806284BDE8BC35C08730E9F088309A
:1009200019F1843049F580918000806280938000C5
:10093000F0928B00E0928A0025C084B5806884BD67
:10094000E7BC20C080918000806880938000F09296
:100950008900E092880016C08091B0008068809382
:10096000B000E092B3000EC08091B000806280932E
:10097000B000E092B40006C0F0E8EF16F1040CF00D
:10098000B9CFB2CF61E088E00E94090160E089E060
:100990000E94090161E080E00E9416038CE491E06E
:1009A0000E943D0361E08AE00E941603C09071013D
:1009B000D09072010D2C000CEE08FF08F7FE26C047
:1009C000E0917301F09174010190F081E02D6DE2EE
:1009D00083E791E0099522273327A9012C193D09C6
:1009E0004E095F0919A2CE0181967C01CA01B901A5
:1009F000A30192010E946F05605DF70162937F0180
:100A0000211531054105510589F715C0A70196014A
:100A100019A2CE0181967C01CA01B901A3019201FC
:100A20000E946F05605DF70162937F01211531051A
:100A30004105510589F7C7010E942B032AC060E0D8
:100A400088E00E94090160E089E00E9409018DE0D0
:100A50000E94E000892BE9F461E080E00E94160327
:100A600086E591E00E943D0364EF71E080E090E054
:100A70000E949A0161E080E00E9416038AE291E000
:100A80000E943D0364EF71E080E090E00E949A01D3
:100A9000DECFA114B10409F4D9CE0E940000D6CE55
:100AA000E3E7F1E01382128284E091E09183808396
:100AB00082E084838FEF858383E0868384E087836D
:100AC00085E0808786E0818787E0828713861486A9
:100AD00015861686178661E0CF010C947302A1E299
:100AE0001A2EAA1BBB1BFD010DC0AA1FBB1FEE1FA8
:100AF000FF1FA217B307E407F50720F0A21BB30BF3
:100B0000E40BF50B661F771F881F991F1A9469F76E
:100B100060957095809590959B01AC01BD01CF01CA
:100B20000895EE0FFF1F0590F491E02D099481E0E8
:0C0B300090E0F8940C949C05F894FFCF22
:100B3C00000000006A028C00537465726F776E6956
:100B4C006B204F707279736B004B6F6E7261642007
:100B5C004A616E6B6F77736B690020202020202018
:100B6C00202020202020202020200053544F5020D3
:100B7C002F205550202F20444F574E00537A796226
:100B8C006B6F73633A00576369736E696574792090
:080B9C0053544F5021210000C9
:107E0000112484B714BE81FFF0D085E080938100F7
:107E100082E08093C00088E18093C10086E0809377
:107E2000C20080E18093C4008EE0C9D0259A86E02C
:107E300020E33CEF91E0309385002093840096BBD3
:107E4000B09BFECF1D9AA8958150A9F7CC24DD24C4
:107E500088248394B5E0AB2EA1E19A2EF3E0BF2EE7
:107E6000A2D0813461F49FD0082FAFD0023811F036
:107E7000013811F484E001C083E08DD089C08234E0
:107E800011F484E103C0853419F485E0A6D080C0E4
:107E9000853579F488D0E82EFF2485D0082F10E0AE
:107EA000102F00270E291F29000F111F8ED06801E7
:107EB0006FC0863521F484E090D080E0DECF843638
:107EC00009F040C070D06FD0082F6DD080E0C81688
:107ED00080E7D80618F4F601B7BEE895C0E0D1E017
:107EE00062D089930C17E1F7F0E0CF16F0E7DF06D8
:107EF00018F0F601B7BEE89568D007B600FCFDCFD4
:107F0000A601A0E0B1E02C9130E011968C91119780
:107F100090E0982F8827822B932B1296FA010C0160
:107F200087BEE89511244E5F5F4FF1E0A038BF0790
:107F300051F7F601A7BEE89507B600FCFDCF97BE46
:107F4000E89526C08437B1F42ED02DD0F82E2BD052
:107F50003CD0F601EF2C8F010F5F1F4F84911BD097
:107F6000EA94F801C1F70894C11CD11CFA94CF0C13
:107F7000D11C0EC0853739F428D08EE10CD085E9AC
:107F80000AD08FE07ACF813511F488E018D01DD067
:107F900080E101D065CF982F8091C00085FFFCCF94
:107FA0009093C60008958091C00087FFFCCF809118
:107FB000C00084FD01C0A8958091C6000895E0E648
:107FC000F0E098E1908380830895EDDF803219F02E
:107FD00088E0F5DFFFCF84E1DECF1F93182FE3DFCA
:107FE0001150E9F7F2DF1F91089580E0E8DFEE27F6
:047FF000FF270994CA
:027FFE00040479
:0400000300007E007B
:00000001FF
