:100000000C945E000C9486000C9486000C94860080
:100010000C9486000C9486000C9486000C94860048
:100020000C9486000C9486000C9486000C94280393
:100030000C9486000C9486000C9486000C94860028
:100040000C9486020C9486000C94F6020C94D00258
:100050000C9486000C9486000C9486000C94860008
:100060000C9486000C948600000000080002010039
:100070000003040700000000000000000000000072
:10008000250028002B0000000000240027002A0083
:10009000040404040404040402020202020203032E
:1000A0000303030301020408102040800102040836
:1000B0001020010204081020E903960611241FBE37
:1000C000CFEFD8E0DEBFCDBF11E0A0E0B1E0EAE3C2
:1000D000F3E102C005900D92A43AB107D9F722E0EE
:1000E000A4EAB1E001C01D92AD37B207E1F710E01C
:1000F000CDE5D0E004C02197FE010E947E07CC35FB
:10010000D107C9F70E945A040C9490090C9400007E
:100110002FB7F8948091AA019091AB01A091AC0106
:10012000B091AD012FBF8093B6019093B701A0931A
:10013000B801B093B901E091AE01F091AF01068032
:10014000F781E02D8EEA91E0099597FF26C02FB741
:10015000F8948091AA019091AB01A091AC01B0916B
:10016000AD012FBF4091B6015091B7016091B80128
:100170007091B901841B950BA60BB70B4091B2018E
:100180005091B3016091B4017091B5018417950746
:10019000A607B70780F28FEF9FEF08950895CF92DB
:1001A000DF92EF92FF920F931F93CF93DF936C0137
:1001B0007A018B01C0E0D0E0CE15DF0589F0D801CF
:1001C0006D918D01D601ED91FC910190F081E02DB2
:1001D000C6010995892B11F47E0102C02196ECCF4E
:1001E000C701DF91CF911F910F91FF90EF90DF90AA
:1001F000CF900895FC01918D828D981761F0828DCA
:10020000DF01A80FB11D5D968C91928D9F5F9F734A
:10021000928F90E008958FEF9FEF0895FC01918DEC
:10022000828D981731F0828DE80FF11D858D90E059
:1002300008958FEF9FEF0895FC01918D228D892FF6
:1002400090E0805C9F4F821B91098F7399270895DE
:100250008EEA91E00E941C0121E0892B09F420E044
:10026000822F0895FC01848DDF01A80FB11DA35AD0
:10027000BF4F2C91848D90E001968F739927848FC6
:10028000A689B7892C93A089B1898C9180648C93BD
:10029000938D848D981306C00288F389E02D8081A8
:1002A0008F7D80830895EF92FF920F931F93CF93DA
:1002B000DF93EC0181E0888F9B8D8C8D981305C0B6
:1002C000E889F989808185FD24C0F62E0B8D10E028
:1002D0000F5F1F4F0F731127E02E8C8DE8120CC09B
:1002E0000FB607FCFACFE889F989808185FFF5CF41
:1002F000CE010E943201F1CF8B8DFE01E80FF11D7E
:10030000E35AFF4FF0820B8FEA89FB89808180627C
:1003100007C0EE89FF896083E889F989808180645C
:10032000808381E090E0DF91CF911F910F91FF904A
:10033000EF900895CF93DF93EC01888D8823C9F067
:10034000EA89FB89808185FD05C0A889B9898C91DE
:1003500086FD0FC00FB607FCF5CF808185FFF2CF79
:10036000A889B9898C9185FFEDCFCE010E94320119
:10037000E7CFDF91CF91089580E090E0892B29F0BD
:100380000E94280181110C940000089590E0FC0166
:10039000E859FF4F3491FC01EC55FF4F2491FC01CB
:1003A000E057FF4FE491EE2309F43BC0332339F1CA
:1003B000333091F038F43130A9F0323001F584B5A2
:1003C0008F7D12C0373091F03830A1F03430B9F45D
:1003D000809180008F7D03C0809180008F77809313
:1003E00080000DC084B58F7784BD09C08091B000B6
:1003F0008F7703C08091B0008F7D8093B000F0E0D4
:10040000EE0FFF1FE458FF4FA591B4918FB7F894FA
:10041000EC91611103C020952E2301C02E2B2C934B
:100420008FBF0895009769F0FC0101900020E9F763
:100430003197AF01481B590BBC018EEA91E00C9437
:10044000CF0080E090E00895CF93DF930E941202E6
:10045000EC0188E191E00E9412028C0F9D1FDF9158
:10046000CF9108950E947B090F931F93CF93DF9341
:10047000EC0188819981009729F02A813B81261718
:10048000370788F48B016F5F7F4F0E94B108009798
:1004900061F0998388831B830A832C813D81232B00
:1004A00011F4FC01108281E001C080E0DF91CF9166
:1004B0001F910F910895EF92FF920F931F93CF9387
:1004C000DF93EC017B018A01BA010E94340228818A
:1004D000398181110DC02115310519F0C9010E9422
:1004E0001908198218821D821C821B821A8206C07A
:1004F0001D830C83B701C9010E948909CE01DF91D8
:10050000CF911F910F91FF90EF9008951F920F923E
:100510000FB60F9211242F933F938F939F93AF9316
:10052000BF938091AA019091AB01A091AC01B091D1
:10053000AD013091A90123E0230F2D3720F401965E
:10054000A11DB11D05C026E8230F0296A11DB11DF6
:100550002093A9018093AA019093AB01A093AC01D1
:10056000B093AD018091A5019091A601A091A70142
:10057000B091A8010196A11DB11D8093A501909392
:10058000A601A093A701B093A801BF91AF919F913D
:100590008F913F912F910F900FBE0F901F90189544
:1005A0001F920F920FB60F9211242F933F934F93E8
:1005B0005F936F937F938F939F93AF93BF93EF93CB
:1005C000FF938EEA91E00E943201FF91EF91BF917B
:1005D000AF919F918F917F916F915F914F913F91DB
:1005E0002F910F900FBE0F901F9018951F920F9292
:1005F0000FB60F9211242F938F939F93EF93FF9336
:10060000E091BE01F091BF018081E091C401F091C1
:10061000C50182FD12C090818091C7018F5F8F73E9
:100620002091C801821751F0E091C701F0E0E25536
:10063000FE4F958F8093C70101C08081FF91EF919C
:100640009F918F912F910F900FBE0F901F90189533
:100650001F920F920FB60F9211242F933F934F9337
:100660005F936F937F938F939F93AF93BF93EF931A
:10067000FF938091A40187FF05C01092850010921E
:1006800084001BC02091A401022E000C330B80912A
:100690006F0290E02817390784F48091A401082E96
:1006A000000C990BFC01EE0FFF1F8E0F9F1FFC012A
:1006B000E55BFD4F808186FD15C08091A4018F5FB1
:1006C0008093A4012091A401022E000C330B809191
:1006D0006F0290E028173907C4F48091A4018C3090
:1006E00064F113C08091A401082E000C990BFC0149
:1006F000EE0FFF1F8E0F9F1FFC01E55BFD4F8081FA
:1007000060E08F730E94C601D8CF809184009091E1
:100710008500049680349C4918F480E49CE905C067
:100720008091840090918500049690938900809335
:1007300088008FEF8093A4013BC02091840030910A
:1007400085008091A401082E000C990BFC01EE0F8E
:10075000FF1F8E0F9F1FFC01E55BFD4F8181928182
:10076000820F931F90938900809388008091A40149
:10077000082E000C990BFC01EE0FFF1F8E0F9F1F20
:10078000FC01E55BFD4F808186FF12C08091A401D2
:10079000082E000C990BFC01EE0FFF1F8E0F9F1F00
:1007A000FC01E55BFD4F808161E08F730E94C60113
:1007B000FF91EF91BF91AF919F918F917F916F9139
:1007C0005F914F913F912F910F900FBE0F901F900F
:1007D00018951092B1011092B00188EE93E0A0E05C
:1007E000B0E08093B2019093B301A093B401B093B1
:1007F000B5018CE091E09093AF018093AE0185EC60
:1008000090E09093BB018093BA0184EC90E09093C8
:10081000BD018093BC0180EC90E09093BF01809378
:10082000BE0181EC90E09093C1018093C00182EC05
:1008300090E09093C3018093C20186EC90E0909386
:10084000C5018093C4011092C7011092C801109293
:10085000C9011092CA0180916F028C30A0F491E01E
:10086000980F90936F028093760290E0FC01EE0F58
:10087000FF1F8E0F9F1FFC01E55BFD4F88EB9BE088
:100880009283818303C08FEF80937602109271026E
:1008900010927002109273021092720210927502FE
:1008A0001092740240E050E06AE171E080E792E06B
:1008B0000C945B02CF93DF93CDB7DEB7A5970FB64D
:1008C000F894DEBF0FBECDBF789484B5826084BD3E
:1008D00084B5816084BD85B5826085BD85B5816044
:1008E00085BD80916E00816080936E0010928100C2
:1008F000809181008260809381008091810081607D
:10090000809381008091800081608093800080913D
:10091000B10084608093B1008091B00081608093C9
:10092000B00080917A00846080937A0080917A0090
:10093000826080937A0080917A00816080937A004F
:1009400080917A00806880937A001092C100E091D3
:10095000BE01F091BF0182E08083E091BA01F09185
:10096000BB011082E091BC01F091BD018FEC80834E
:100970001092C601E091C201F091C30186E080832C
:10098000E091C001F091C101808180618083E0919C
:10099000C001F091C101808188608083E091C00135
:1009A000F091C101808180688083E091C001F09165
:1009B000C10180818F7D80838BE191E00E942402C0
:1009C000809176028C3008F068C0E7EAF0E024916C
:1009D000E3E9F0E08491882399F090E0880F991F73
:1009E000FC01EA57FF4FA591B491FC01E458FF4F79
:1009F000859194918FB7F894EC91E22BEC938FBF93
:100A000080917602E82FF0E09F01220F331FE20F62
:100A1000F31FE55BFD4F9081907C93609083109273
:100A20007702109278026CE00E9472072CE0829F9D
:100A3000B001112440E050E09A01260F371FF90160
:100A4000EE0FFF1F2E0F3F1FF901E55BFD4F908159
:100A500096FD16C04F5F5F4F4C30510569F781110D
:100A60000FC01092800082E0809381001092850078
:100A700010928400B19A80916F00826080936F0021
:100A8000E0917602F0E0CF01880F991FE80FF91F7F
:100A9000E55BFD4F80818064808368E5262E62E0FF
:100AA000362E74EB472E512C612C712CEAE08E2EE1
:100AB000912CA12CB12C8EEA91E00E941C011816F9
:100AC00019060CF030C11A8219821C821B821E8208
:100AD0001D8240E050E06AE171E0CE0101960E9483
:100AE0005B020E94880097FD1EC08A309105D9F0F4
:100AF0008AA31BA20D811E810F5F1F4FB801CE017B
:100B000001960E943402882361F329813A818D8104
:100B10009E81BE016E5D7F4F820F931F0E948909E7
:100B20001E830D83DECF8091700290917102009739
:100B3000C9F069817A816115710591F04091720265
:100B4000509173022D813E814217530748F00E9455
:100B500089098D819E81909375028093740218C0DB
:100B60000E94190889819A81909371028093700282
:100B70008B819C8190937302809372028D819E8100
:100B800090937502809374021A8219821C821B82D0
:100B90001E821D8289819A810E94190880917002AB
:100BA00090917102009719F00E949C0603C060E0CA
:100BB00070E0CB017093010160930001653B71050A
:100BC0000CF0A9C0209178027101E21AF10827FD0A
:100BD000F394F701EE0FFF1FEE0FFF1FFDA3ECA331
:100BE0002091770208E810E0021B110927FD1395F8
:100BF000000F111F000F111F6801012E000CEE08DD
:100C0000FF08DB0177FF02C0A0E0B0E02CA13DA10E
:100C1000A901330F660B770B9A01AB012C193D0923
:100C20004E095F090E940207A30192010E94D806A3
:100C30002C0D3D1D4E1D5F1D809176028C30E0F421
:100C4000201731073CF08901ECA1FDA1E217F30761
:100C50000CF48F0102501109000F111F2FB7F894E7
:100C600090E0FC01EE0FFF1F8E0F9F1FFC01E55B64
:100C7000FD4F128301832FBF8AE491E00E9412028C
:100C800020910001309101016901330FEE08FF0846
:100C9000F7FE26C0E091AE01F091AF010190F08126
:100CA000E02D6DE28EEA91E0099522273327A90114
:100CB0002C193D094E095F0919A28E010F5D1F4FC6
:100CC000CA01B901A50194010E944107605DF801C4
:100CD00062938F01211531054105510589F715C032
:100CE000A701960119A28E010F5D1F4FCA01B9011C
:100CF000A50194010E944107605DF80162938F0194
:100D0000211531054105510589F7C8010E941202DC
:100D100085E691E006C08DE691E00E9424028EE80F
:100D200091E00E9424020E94BC01C5CE8091700215
:100D3000909171020C9419081F93FC019927882740
:100D4000BC01E89411911032E9F3193010F01E3013
:100D5000C8F31B3251F01D3249F4689406C00E945A
:100D6000C306610F711D811D911D119110531A3021
:100D7000B0F33EF490958095709561957F4F8F4FBD
:100D80009F4F1F910895592F482F372F262F660FF9
:100D9000771F881F991F660F771F881F991F620F83
:100DA000731F841F951F660F771F881F991F089553
:100DB000052E97FB1EF400940E94EF0657FD07D006
:100DC0000E94410707FC03D04EF40C94EF065095A7
:100DD0004095309521953F4F4F4F5F4F0895909527
:100DE0008095709561957F4F8F4F9F4F08950E941A
:100DF0006307A59F900DB49F900DA49F800D911D3A
:100E000011240895B7FF0C94F7060E94F706821B81
:100E1000930B08952F923F924F925F926F927F9221
:100E20008F929F92AF92BF92CF92DF92EF92FF92FA
:100E30000F931F93CF93DF93CDB7DEB7CA1BDB0BA6
:100E40000FB6F894DEBF0FBECDBF09942A8839884B
:100E500048885F846E847D848C849B84AA84B98452
:100E6000C884DF80EE80FD800C811B81AA81B9815E
:100E7000CE0FD11D0FB6F894DEBF0FBECDBFED0172
:100E80000895A1E21A2EAA1BBB1BFD010DC0AA1FCB
:100E9000BB1FEE1FFF1FA217B307E407F50720F0E3
:100EA000A21BB30BE40BF50B661F771F881F991F5E
:100EB0001A9469F760957095809590959B01AC01A7
:100EC000BD01CF010895A29FB001B39FC001A39FB0
:100ED000700D811D1124911DB29F700D811D112473
:100EE000911D0895991B79E004C0991F961708F089
:100EF000961B881F7A95C9F780950895EE0FFF1FFE
:100F00000590F491E02D0994CF93DF938230910501
:100F100010F482E090E0E0917B02F0917C0220E00E
:100F200030E0C0E0D0E0309711F1408151814817A6
:100F30005907C0F04817590761F4828193812097BF
:100F400019F09B838A832BC090937C0280937B0251
:100F500026C02115310519F04217530718F49A01DC
:100F6000BE01DF01EF010280F381E02DDCCF21150E
:100F7000310509F1281B390B2430310590F4129604
:100F80008D919C9113976115710521F0FB0193835D
:100F9000828304C090937C0280937B02FD01329691
:100FA00044C0FD01E20FF31F819391932250310958
:100FB0002D933C933AC02091790230917A02232BF1
:100FC00041F4209104013091050130937A0220937D
:100FD000790220910201309103012115310541F47C
:100FE0002DB73EB74091060150910701241B350BE8
:100FF000E0917902F0917A02E217F307A0F42E1B38
:101000003F0B2817390778F0AC014E5F5F4F24176C
:10101000350748F04E0F5F1F50937A0240937902D4
:101020008193919302C0E0E0F0E0CF01DF91CF9196
:1010300008950F931F93CF93DF93009709F48CC00B
:10104000FC0132971382128200917B0210917C0284
:101050000115110581F420813181820F931F2091A8
:10106000790230917A022817390779F5F0937A02DC
:10107000E093790271C0D80140E050E0AE17BF079D
:1010800050F412962D913C911397AD012115310525
:1010900009F1D901F3CF9D01DA0133832283608105
:1010A0007181860F971F8217930769F4EC012881DD
:1010B0003981260F371F2E5F3F4F318320838A816E
:1010C0009B8193838283452B29F4F0937C02E093E8
:1010D0007B0242C01396FC93EE931297ED01499167
:1010E00059919E01240F351FE217F30771F4808197
:1010F0009181840F951F029611969C938E93828105
:10110000938113969C938E931297E0E0F0E0D801C0
:1011100012968D919C911397009719F0F8018C010C
:10112000F6CF8D919C9198012E5F3F4F820F931FB8
:101130002091790230917A022817390769F43097A3
:1011400029F410927C0210927B0202C01382128258
:1011500010937A0200937902DF91CF911F910F9142
:101160000895A0E0B0E0E7EBF8E00C940E07EC0186
:10117000009721F4CB010E948407B8C0FC01E60F60
:10118000F71F9C0122503109E217F30708F4ACC0A5
:10119000D9010D911C91119706171707B0F0053072
:1011A000110508F49FC0C80104978617970708F433
:1011B00099C002501109061B170B019311936D93EF
:1011C0007C93CF010E9419088DC05B01A01AB10A5F
:1011D0004C01800E911EA0917B02B0917C0240E0F8
:1011E00050E0E12CF12C109709F44AC0A815B9057C
:1011F000D1F56D907C901197630182E0C80ED11CEF
:10120000CA14DB0480F1A3014A195B096A0182E078
:10121000C80ED11C1296BC9012971396AC91B5E0F3
:10122000CB16D10440F0B282A38351834083D9010D
:101230006D937C930AC00E5F1F4FC301800F911FF7
:10124000F90191838083EB2DFA2FE114F10431F041
:10125000D7011396FC93EE93129744C0F0937C024F
:10126000E0937B023FC08D919C91119748175907DD
:1012700008F4AC017D0112960D90BC91A02DB3CF66
:101280008091790290917A0288159905E1F44617C8
:101290005707C8F48091020190910301009741F42F
:1012A0008DB79EB74091060150910701841B950BA5
:1012B000E817F907C8F4F0937A02E0937902F9018C
:1012C000718360830FC0CB010E9484077C0100976B
:1012D00059F0A801BE010E948009CE010E941908A0
:1012E000C70104C0CE0102C080E090E0CDB7DEB7F8
:1012F000EEE00C942A0781E090E0F8940C949009B9
:10130000FB01DC0102C001900D9241505040D8F722
:101310000895FB01DC0101900D920020E1F7089592
:1013200010E0CDE5D0E004C0FE010E947E072196CA
:0A133000CE35D107C9F7F894FFCFBE
:10133A000A0000007D028000000000005301CF0077
:10134A001C01FA000E019A010D0A00576974616ABC
:10135A002C20706F64616A20706FB36FBF656E690D
:10136A0065207365727761207A207A616B72657382
:10137A00752030202D20313830005573746177691B
:10138A00616D20736572766F207720706F7A79634A
:10139A006A693A20002073746F706E6900506F6436
:1013AA00616E6120776172746F73632073706F7AF4
:1013BA0061207A616B726573752021212100506F5B
:1013CA0064616A20706F707261776E79207A616BDE
:0413DA0072657300C5
:00000001FF
